{
  "_format": "hh-sol-artifact-1",
  "contractName": "Hero",
  "sourceName": "contracts/Hero.sol",
  "abi": [
    {
      "inputs": [
        {
          "internalType": "enum Hero.Class",
          "name": "class",
          "type": "uint8"
        }
      ],
      "name": "createHero",
      "outputs": [],
      "stateMutability": "payable",
      "type": "function"
    },
    {
      "inputs": [],
      "name": "generateRandom",
      "outputs": [
        {
          "internalType": "uint256",
          "name": "",
          "type": "uint256"
        }
      ],
      "stateMutability": "view",
      "type": "function"
    },
    {
      "inputs": [
        {
          "internalType": "uint32",
          "name": "hero",
          "type": "uint32"
        }
      ],
      "name": "getDex",
      "outputs": [
        {
          "internalType": "uint32",
          "name": "",
          "type": "uint32"
        }
      ],
      "stateMutability": "pure",
      "type": "function"
    },
    {
      "inputs": [
        {
          "internalType": "uint32",
          "name": "hero",
          "type": "uint32"
        }
      ],
      "name": "getHealth",
      "outputs": [
        {
          "internalType": "uint32",
          "name": "",
          "type": "uint32"
        }
      ],
      "stateMutability": "pure",
      "type": "function"
    },
    {
      "inputs": [],
      "name": "getHeroes",
      "outputs": [
        {
          "internalType": "uint256[]",
          "name": "",
          "type": "uint256[]"
        }
      ],
      "stateMutability": "view",
      "type": "function"
    },
    {
      "inputs": [
        {
          "internalType": "uint32",
          "name": "hero",
          "type": "uint32"
        }
      ],
      "name": "getIntellect",
      "outputs": [
        {
          "internalType": "uint32",
          "name": "",
          "type": "uint32"
        }
      ],
      "stateMutability": "pure",
      "type": "function"
    },
    {
      "inputs": [
        {
          "internalType": "uint32",
          "name": "hero",
          "type": "uint32"
        }
      ],
      "name": "getMagic",
      "outputs": [
        {
          "internalType": "uint32",
          "name": "",
          "type": "uint32"
        }
      ],
      "stateMutability": "pure",
      "type": "function"
    },
    {
      "inputs": [
        {
          "internalType": "uint32",
          "name": "hero",
          "type": "uint32"
        }
      ],
      "name": "getStrength",
      "outputs": [
        {
          "internalType": "uint32",
          "name": "",
          "type": "uint32"
        }
      ],
      "stateMutability": "pure",
      "type": "function"
    }
  ],
  "bytecode": "0x608060405234801561001057600080fd5b50610a7c806100206000396000f3fe60806040526004361061007b5760003560e01c80639a8d28821161004e5780639a8d288214610141578063acc0fd111461016c578063d5389e0e146101a9578063fe7498b8146101e65761007b565b806302e4af0114610080578063051258a7146100ab5780635e7e236d146100e85780636b32e34f14610104575b600080fd5b34801561008c57600080fd5b50610095610223565b6040516100a291906105fb565b60405180910390f35b3480156100b757600080fd5b506100d260048036038101906100cd9190610657565b610256565b6040516100df9190610693565b60405180910390f35b61010260048036038101906100fd91906106d3565b61026d565b005b34801561011057600080fd5b5061012b60048036038101906101269190610657565b6104f2565b6040516101389190610693565b60405180910390f35b34801561014d57600080fd5b50610156610509565b60405161016391906107be565b60405180910390f35b34801561017857600080fd5b50610193600480360381019061018e9190610657565b61059d565b6040516101a09190610693565b60405180910390f35b3480156101b557600080fd5b506101d060048036038101906101cb9190610657565b6105b4565b6040516101dd9190610693565b60405180910390f35b3480156101f257600080fd5b5061020d60048036038101906102089190610657565b6105cb565b60405161021a9190610693565b60405180910390f35b60004442604051602001610238929190610801565b6040516020818303038152906040528051906020012060001c905090565b6000601f600c8363ffffffff16901c169050919050565b66b1a2bc2ec500003410156102b7576040517f08c379a00000000000000000000000000000000000000000000000000000000081526004016102ae9061088a565b60405180910390fd5b6000600567ffffffffffffffff8111156102d4576102d36108aa565b5b6040519080825280602002602001820160405280156103025781602001602082028036833780820191505090505b50905060028160008151811061031b5761031a6108d9565b5b60200260200101818152505060078160018151811061033d5761033c6108d9565b5b602002602001018181525050600c8160028151811061035f5761035e6108d9565b5b602002602001018181525050601181600381518110610381576103806108d9565b5b6020026020010181815250506016816004815181106103a3576103a26108d9565b5b60200260200101818152505060006005905060008360028111156103ca576103c9610908565b5b90505b6000826103d8610223565b6103e29190610966565b90506000600184600d6103f591906109c6565b6103fd610223565b6104079190610966565b61041191906109c6565b9050848281518110610426576104256108d9565b5b602002602001015181901b83179250838061044090610a1c565b945050848481518110610456576104556108d9565b5b6020026020010151858381518110610471576104706108d9565b5b6020026020010181815250505050600082116103cd576000803373ffffffffffffffffffffffffffffffffffffffff1673ffffffffffffffffffffffffffffffffffffffff16815260200190815260200160002081908060018154018082558091505060019003906000526020600020016000909190919091505550505050565b6000601f60118363ffffffff16901c169050919050565b60606000803373ffffffffffffffffffffffffffffffffffffffff1673ffffffffffffffffffffffffffffffffffffffff16815260200190815260200160002080548060200260200160405190810160405280929190818152602001828054801561059357602002820191906000526020600020905b81548152602001906001019080831161057f575b5050505050905090565b6000601f60028363ffffffff16901c169050919050565b6000601f60078363ffffffff16901c169050919050565b6000601f60168363ffffffff16901c169050919050565b6000819050919050565b6105f5816105e2565b82525050565b600060208201905061061060008301846105ec565b92915050565b600080fd5b600063ffffffff82169050919050565b6106348161061b565b811461063f57600080fd5b50565b6000813590506106518161062b565b92915050565b60006020828403121561066d5761066c610616565b5b600061067b84828501610642565b91505092915050565b61068d8161061b565b82525050565b60006020820190506106a86000830184610684565b92915050565b600381106106bb57600080fd5b50565b6000813590506106cd816106ae565b92915050565b6000602082840312156106e9576106e8610616565b5b60006106f7848285016106be565b91505092915050565b600081519050919050565b600082825260208201905092915050565b6000819050602082019050919050565b610735816105e2565b82525050565b6000610747838361072c565b60208301905092915050565b6000602082019050919050565b600061076b82610700565b610775818561070b565b93506107808361071c565b8060005b838110156107b1578151610798888261073b565b97506107a383610753565b925050600181019050610784565b5085935050505092915050565b600060208201905081810360008301526107d88184610760565b905092915050565b6000819050919050565b6107fb6107f6826105e2565b6107e0565b82525050565b600061080d82856107ea565b60208201915061081d82846107ea565b6020820191508190509392505050565b600082825260208201905092915050565b7f506c656173652073656e64206d6f7265206d6f6e657900000000000000000000600082015250565b600061087460168361082d565b915061087f8261083e565b602082019050919050565b600060208201905081810360008301526108a381610867565b9050919050565b7f4e487b7100000000000000000000000000000000000000000000000000000000600052604160045260246000fd5b7f4e487b7100000000000000000000000000000000000000000000000000000000600052603260045260246000fd5b7f4e487b7100000000000000000000000000000000000000000000000000000000600052602160045260246000fd5b7f4e487b7100000000000000000000000000000000000000000000000000000000600052601260045260246000fd5b6000610971826105e2565b915061097c836105e2565b92508261098c5761098b610937565b5b828206905092915050565b7f4e487b7100000000000000000000000000000000000000000000000000000000600052601160045260246000fd5b60006109d1826105e2565b91506109dc836105e2565b9250827fffffffffffffffffffffffffffffffffffffffffffffffffffffffffffffffff03821115610a1157610a10610997565b5b828201905092915050565b6000610a27826105e2565b91506000821415610a3b57610a3a610997565b5b60018203905091905056fea2646970667358221220c58f6a4ca97eccccdfd721c282d909c6f63ae091658e939e1d22c8cd2080ee2264736f6c634300080a0033",
  "linkReferences": {},
  "deployedLinkReferences": {}
}