{
  "_format": "hh-sol-artifact-1",
  "contractName": "TestHero",
  "sourceName": "contracts/TestHero.sol",
  "abi": [
    {
      "inputs": [
        {
          "internalType": "enum Hero.Class",
          "name": "class",
          "type": "uint8"
        }
      ],
      "name": "createHero",
      "outputs": [],
      "stateMutability": "payable",
      "type": "function"
    },
    {
      "inputs": [],
      "name": "generateRandom",
      "outputs": [
        {
          "internalType": "uint256",
          "name": "",
          "type": "uint256"
        }
      ],
      "stateMutability": "view",
      "type": "function"
    },
    {
      "inputs": [
        {
          "internalType": "uint32",
          "name": "hero",
          "type": "uint32"
        }
      ],
      "name": "getDex",
      "outputs": [
        {
          "internalType": "uint32",
          "name": "",
          "type": "uint32"
        }
      ],
      "stateMutability": "pure",
      "type": "function"
    },
    {
      "inputs": [
        {
          "internalType": "uint32",
          "name": "hero",
          "type": "uint32"
        }
      ],
      "name": "getHealth",
      "outputs": [
        {
          "internalType": "uint32",
          "name": "",
          "type": "uint32"
        }
      ],
      "stateMutability": "pure",
      "type": "function"
    },
    {
      "inputs": [],
      "name": "getHeroes",
      "outputs": [
        {
          "internalType": "uint256[]",
          "name": "",
          "type": "uint256[]"
        }
      ],
      "stateMutability": "view",
      "type": "function"
    },
    {
      "inputs": [
        {
          "internalType": "uint32",
          "name": "hero",
          "type": "uint32"
        }
      ],
      "name": "getIntellect",
      "outputs": [
        {
          "internalType": "uint32",
          "name": "",
          "type": "uint32"
        }
      ],
      "stateMutability": "pure",
      "type": "function"
    },
    {
      "inputs": [
        {
          "internalType": "uint32",
          "name": "hero",
          "type": "uint32"
        }
      ],
      "name": "getMagic",
      "outputs": [
        {
          "internalType": "uint32",
          "name": "",
          "type": "uint32"
        }
      ],
      "stateMutability": "pure",
      "type": "function"
    },
    {
      "inputs": [
        {
          "internalType": "uint32",
          "name": "hero",
          "type": "uint32"
        }
      ],
      "name": "getStrength",
      "outputs": [
        {
          "internalType": "uint32",
          "name": "",
          "type": "uint32"
        }
      ],
      "stateMutability": "pure",
      "type": "function"
    },
    {
      "inputs": [
        {
          "internalType": "uint256",
          "name": "r",
          "type": "uint256"
        }
      ],
      "name": "setRandom",
      "outputs": [],
      "stateMutability": "nonpayable",
      "type": "function"
    }
  ],
  "bytecode": "0x608060405234801561001057600080fd5b50610a9d806100206000396000f3fe6080604052600436106100865760003560e01c8063729e7cf611610059578063729e7cf61461014c5780639a8d288214610175578063acc0fd11146101a0578063d5389e0e146101dd578063fe7498b81461021a57610086565b806302e4af011461008b578063051258a7146100b65780635e7e236d146100f35780636b32e34f1461010f575b600080fd5b34801561009757600080fd5b506100a0610257565b6040516100ad9190610610565b60405180910390f35b3480156100c257600080fd5b506100dd60048036038101906100d8919061066c565b610261565b6040516100ea91906106a8565b60405180910390f35b61010d600480360381019061010891906106e8565b610278565b005b34801561011b57600080fd5b506101366004803603810190610131919061066c565b6104fd565b60405161014391906106a8565b60405180910390f35b34801561015857600080fd5b50610173600480360381019061016e9190610741565b610514565b005b34801561018157600080fd5b5061018a61051e565b604051610197919061082c565b60405180910390f35b3480156101ac57600080fd5b506101c760048036038101906101c2919061066c565b6105b2565b6040516101d491906106a8565b60405180910390f35b3480156101e957600080fd5b5061020460048036038101906101ff919061066c565b6105c9565b60405161021191906106a8565b60405180910390f35b34801561022657600080fd5b50610241600480360381019061023c919061066c565b6105e0565b60405161024e91906106a8565b60405180910390f35b6000600154905090565b6000601f600c8363ffffffff16901c169050919050565b66b1a2bc2ec500003410156102c2576040517f08c379a00000000000000000000000000000000000000000000000000000000081526004016102b9906108ab565b60405180910390fd5b6000600567ffffffffffffffff8111156102df576102de6108cb565b5b60405190808252806020026020018201604052801561030d5781602001602082028036833780820191505090505b509050600281600081518110610326576103256108fa565b5b602002602001018181525050600781600181518110610348576103476108fa565b5b602002602001018181525050600c8160028151811061036a576103696108fa565b5b60200260200101818152505060118160038151811061038c5761038b6108fa565b5b6020026020010181815250506016816004815181106103ae576103ad6108fa565b5b60200260200101818152505060006005905060008360028111156103d5576103d4610929565b5b90505b6000826103e3610257565b6103ed9190610987565b90506000600184600d61040091906109e7565b610408610257565b6104129190610987565b61041c91906109e7565b9050848281518110610431576104306108fa565b5b602002602001015181901b83179250838061044b90610a3d565b945050848481518110610461576104606108fa565b5b602002602001015185838151811061047c5761047b6108fa565b5b6020026020010181815250505050600082116103d8576000803373ffffffffffffffffffffffffffffffffffffffff1673ffffffffffffffffffffffffffffffffffffffff16815260200190815260200160002081908060018154018082558091505060019003906000526020600020016000909190919091505550505050565b6000601f60118363ffffffff16901c169050919050565b8060018190555050565b60606000803373ffffffffffffffffffffffffffffffffffffffff1673ffffffffffffffffffffffffffffffffffffffff1681526020019081526020016000208054806020026020016040519081016040528092919081815260200182805480156105a857602002820191906000526020600020905b815481526020019060010190808311610594575b5050505050905090565b6000601f60028363ffffffff16901c169050919050565b6000601f60078363ffffffff16901c169050919050565b6000601f60168363ffffffff16901c169050919050565b6000819050919050565b61060a816105f7565b82525050565b60006020820190506106256000830184610601565b92915050565b600080fd5b600063ffffffff82169050919050565b61064981610630565b811461065457600080fd5b50565b60008135905061066681610640565b92915050565b6000602082840312156106825761068161062b565b5b600061069084828501610657565b91505092915050565b6106a281610630565b82525050565b60006020820190506106bd6000830184610699565b92915050565b600381106106d057600080fd5b50565b6000813590506106e2816106c3565b92915050565b6000602082840312156106fe576106fd61062b565b5b600061070c848285016106d3565b91505092915050565b61071e816105f7565b811461072957600080fd5b50565b60008135905061073b81610715565b92915050565b6000602082840312156107575761075661062b565b5b60006107658482850161072c565b91505092915050565b600081519050919050565b600082825260208201905092915050565b6000819050602082019050919050565b6107a3816105f7565b82525050565b60006107b5838361079a565b60208301905092915050565b6000602082019050919050565b60006107d98261076e565b6107e38185610779565b93506107ee8361078a565b8060005b8381101561081f57815161080688826107a9565b9750610811836107c1565b9250506001810190506107f2565b5085935050505092915050565b6000602082019050818103600083015261084681846107ce565b905092915050565b600082825260208201905092915050565b7f506c656173652073656e64206d6f7265206d6f6e657900000000000000000000600082015250565b600061089560168361084e565b91506108a08261085f565b602082019050919050565b600060208201905081810360008301526108c481610888565b9050919050565b7f4e487b7100000000000000000000000000000000000000000000000000000000600052604160045260246000fd5b7f4e487b7100000000000000000000000000000000000000000000000000000000600052603260045260246000fd5b7f4e487b7100000000000000000000000000000000000000000000000000000000600052602160045260246000fd5b7f4e487b7100000000000000000000000000000000000000000000000000000000600052601260045260246000fd5b6000610992826105f7565b915061099d836105f7565b9250826109ad576109ac610958565b5b828206905092915050565b7f4e487b7100000000000000000000000000000000000000000000000000000000600052601160045260246000fd5b60006109f2826105f7565b91506109fd836105f7565b9250827fffffffffffffffffffffffffffffffffffffffffffffffffffffffffffffffff03821115610a3257610a316109b8565b5b828201905092915050565b6000610a48826105f7565b91506000821415610a5c57610a5b6109b8565b5b60018203905091905056fea2646970667358221220f0e618abf0d66aae47ebe11c70801b6ecaf00e36cc41fc5bc338b91fae4c866364736f6c634300080a0033",
  "linkReferences": {},
  "deployedLinkReferences": {}
}